:100000000C9446000C9465000C9465000C946500FB
:100010000C9465000C9465000C9465000C946500CC
:100020000C9465000C9465000C9465000C946500BC
:100030000C9465000C9465000C9465000C946500AC
:100040000C9446040C9465000C9465000C946500B7
:100050000C9465000C9465000C9465000C9465008C
:100060000C9465000C9465000C9465000C9465007C
:100070000C9465000C9465000C9465000C9465006C
:100080000C9465000C9465000C94650011241FBE4F
:10009000CFEFD0E1DEBFCDBF11E0A0E0B1E0E4E4FE
:1000A000FAE000E00BBF02C007900D92A030B1074C
:1000B000D9F711E0A0E0B1E001C01D92A435B1076D
:1000C000E1F70E94C9040C9420050C940000DF9312
:1000D000CF93CDB7DEB7E2E5F0E08081282F30E0A6
:1000E00040E050E080914E0190914F01A09150016D
:1000F000B0915101820F931FA41FB51FBC01CD0108
:10010000CF91DF910895F894A8E3B0E0E8E3F0E040
:10011000808183608C9378948895F5CFDF93CF931B
:10012000CDB7DEB780E890E0909347018093460119
:1001300084E491E09093010180930001809100019B
:1001400090910101909353018093520182E091E0DC
:1001500023E830E068E370E0A9010E940401909375
:100160003B0180933A018FEF90E090933D018093A3
:100170003C0110923E0110923F01109240011092FA
:10018000410110924301109242018AE391E00E94E2
:100190007E01E3E5F0E082E08083A7E5B0E0E7E5FB
:1001A000F0E0808181608C93A5E5B0E0E5E5F0E0CA
:1001B0008081837C80628C93CF91DF910895FF9141
:1001C000EF91DF91CF91BF91AF919F918F917F91EF
:1001D0006F915F914F913F912F911F910F91FF90E0
:1001E000EF90DF90CF90BF90AF909F908F907F90D7
:1001F0006F905F904F903F902F900F900FBE0F9099
:100200000BBE0F901F900895DF93CF93CDB7DEB74D
:100210002A970FB6F894DEBF0FBECDBF9E838D83A5
:1002200078876F835A8749878F81988596958795B8
:100230009C01220F331F8D819E81820F931F9C830F
:100240008B838B819C81FC01329787E394E09183BF
:1002500080838B819C81FC01349789859A85918369
:1002600080838B819C81FC013697118210828B8167
:100270009C81DC011897EBE5F0E08081282F30E0CD
:10028000EFE5F0E08081882F90E0982F8827822B7F
:10029000932B11969C938E9385E090E09A838983AB
:1002A00014C089819A81880F991F22273327281B20
:1002B000390B8B819C81FC01E20FF31F11821082AC
:1002C00089819A8101969A83898389819A81833170
:1002D000910538F38B819C81FC01B69789859A85BD
:1002E000918380838B819C8186972A960FB6F894A0
:1002F000DEBF0FBECDBFCF91DF910895DF93CF93C7
:1003000000D000D000D0CDB7DEB79E838D83809122
:100310005201909153019C838B83ED81FE818281F8
:1003200093819A838983EB81FC8122813381898146
:100330009A812817390798F08D819E8190935301F7
:1003400080935201ED81FE818B819C819187808712
:1003500037C0EB81FC81808591859C838B83EB8109
:10036000FC8180859185009761F0EB81FC810084A0
:10037000F185E02D2281338189819A8128173907FF
:1003800040F3EB81FC8180859185009759F4ED81E4
:10039000FE8111861086EB81FC818D819E81918783
:1003A00080870EC0EB81FC8180859185ED81FE8187
:1003B00091878087EB81FC818D819E8191878087E9
:1003C00026960FB6F894DEBF0FBECDBFCF91DF915A
:1003D0000895DF93CF9300D000D0CDB7DEB79C83D4
:1003E0008B8380915201909153019A838983298153
:1003F0003A818B819C8128173907D1F5E981FA81EF
:100400008085918590935301809352018091520190
:10041000909153019A8389832BC0E981FA812085C9
:1004200031858B819C812817390741F4EB81FC8150
:1004300080859185E981FA8191878087E981FA81B8
:1004400084819581A681B7818E3F2FEF92072FEF90
:10045000A2072FEFB20731F4E981FA8114821582E5
:1004600016821782E981FA81808591859A83898332
:1004700089819A81009789F60F900F900F900F90C5
:10048000CF91DF910895DF93CF93CDB7DEB7289753
:100490000FB6F894DEBF0FBECDBF80915201909190
:1004A00053019E838D830E946700DC01CB01898309
:1004B0009A83AB83BC8306C0ED81FE8180859185E4
:1004C0009E838D838D819E81009731F12091000163
:1004D000309101018D819E818217930769F3ED812F
:1004E000FE81248135814681578189819A81AB8142
:1004F000BC8182179307A407B507F0F2ED81FE8156
:1005000084819581A681B7818E3F2FEF92072FEFCF
:10051000A2072FEFB20780F68D819E81009769F0C8
:10052000ED81FE8122813381E0910001F091010192
:100530008281938182179307C0F4E0910001F091CA
:100540000101248135814681578189819A81AB815E
:10055000BC8182179307A407B50738F0809100018A
:100560009091010198878F8304C08D819E81988727
:100570008F838F81988528960FB6F894DEBF0FBEC3
:10058000CDBFCF91DF9108956DB77EB7E0910001A7
:10059000F0910101619370830E94430290930101E5
:1005A00080930001E0910001F0910101619170815F
:1005B0007EBF6DBF0895DF93CF93CDB7DEB7F894BC
:1005C000E2E5F0E08081282F30E040E050E08091CB
:1005D0004E0190914F01A0915001B0915101820FB5
:1005E000931FA41FB51F80934E0190934F01A093BA
:1005F0005001B0935101E2E5F0E010821F920F929A
:100600000BB60F920FB60F922F923F924F925F92BE
:100610006F927F928F929F92AF92BF92CF92DF9212
:10062000EF92FF920F931F932F933F934F935F93FC
:100630006F937F938F939F93AF93BF93CF93DF93EA
:10064000EF93FF930E94C402FF91EF91DF91CF914E
:10065000BF91AF919F918F917F916F915F914F91DA
:100660003F912F911F910F91FF90EF90DF90CF90CE
:10067000BF90AF909F908F907F906F905F904F90C2
:100680003F902F900F900FBE0F900BBE0F901F90BA
:100690007894CF91DF9108950F931F93DF93CF93B9
:1006A00000D000D0CDB7DEB769837A838B839C837B
:1006B00000910001109101010E9467009B01AC01B3
:1006C00089819A81AB81BC81820F931FA41FB51FC2
:1006D000F80184839583A683B7830E94DB020F9081
:1006E0000F900F900F90CF91DF911F910F91089570
:1006F000DF93CF93CDB7DEB78091000190910101D8
:10070000CF91DF910895DF93CF9300D0CDB7DEB7BF
:100710009A838983E981FA818FEF9FEFAFEFBFEF73
:1007200084839583A683B7830F900F90CF91DF9139
:100730000895DF93CF9300D0CDB7DEB79A83898336
:10074000E981FA811482158216821782E981FA8181
:1007500022813381E0910001F09101018281938136
:100760002817390710F40E94DB020F900F90CF91E9
:10077000DF910895DF93CF93CDB7DEB7809100016D
:10078000909101010E9483030E94DB02CF91DF91CF
:100790000895DF93CF9300D0CDB7DEB79A838983D6
:1007A000E981FA818EEF9FEFAFEFBFEF84839583EE
:1007B000A683B7830F900F90CF91DF910895DF93B9
:1007C000CF93CDB7DEB780910001909101010E94D7
:1007D000C9030E94DB02CF91DF910895DF93CF938D
:1007E000CDB7DEB728970FB6F894DEBF0FBECDBFEA
:1007F0000E94780398878F838AE391E09E838D839C
:100800001C821B820E94DF03809152019091530150
:100810009A8389831C821B8219C029813A818F8126
:1008200098852817390761F029813A818D819E8149
:100830002817390729F08B819C8101969C838B8333
:10084000E981FA81808591859A83898389819A815A
:10085000009719F78B819C810097A1F628960FB617
:10086000F894DEBF0FBECDBFCF91DF910895DF9327
:10087000CF93CDB7DEB780910001909101010E9426
:10088000E9010E94BA03CF91DF9108951F920F9260
:100890000BB60F920FB60F922F923F924F925F922C
:1008A0006F927F928F929F92AF92BF92CF92DF9280
:1008B000EF92FF920F931F932F933F934F935F936A
:1008C0006F937F938F939F93AF93BF93CF93DF9358
:1008D000EF93FF93A3E2B0E0E3E2F0E08081806277
:1008E0008C9380914E0190914F01A0915001B09155
:1008F000510180509F4FAF4FBF4F80934E01909357
:100900004F01A0935001B09351010E94C402A3E291
:10091000B0E0E3E2F0E080818F7D8C93FF91EF9176
:10092000DF91CF91BF91AF919F918F917F916F9107
:100930005F914F913F912F911F910F91FF90EF90F9
:10094000DF90CF90BF90AF909F908F907F906F90EF
:100950005F904F903F902F900F900FBE0F900BBE67
:100960000F901F9078941895DF93CF93CDB7DEB793
:10097000F894A8E3B0E0E8E3F0E080818C7F826047
:100980008C93789460E075E080E090E00E944C03E6
:10099000EFCFDF93CF93CDB7DEB7C254D0400FB6C1
:1009A000F894DEBF0FBECDBFA2E2B0E0E2E2F0E01D
:1009B0008081806E8C93E7E3F0E08FEF80830E946C
:1009C0008E0024EB34E0CE01019668E370E0A901CB
:1009D0000E9404019AAF89AF80E890E09CAF8BAF92
:1009E000FE01FD961082118212821382FE01EF5BDE
:1009F000FF4F11821082CE01C9960E947E01789429
:100A0000F894A8E3B0E0E8E3F0E080818C7F8C9379
:100A1000A3E2B0E0E3E2F0E0908180E489278C93E8
:100A2000A3E2B0E0E3E2F0E0908180E489278C93D8
:100A3000789460E075E080E090E00E944C03E0CFA5
:040A4000F894FFCF58
:00000001FF
